{
  "contractName": "UtilityContract",
  "abi": [
    {
      "inputs": [],
      "stateMutability": "nonpayable",
      "type": "constructor"
    },
    {
      "inputs": [
        {
          "internalType": "address",
          "name": "walletAddr",
          "type": "address"
        },
        {
          "internalType": "address[]",
          "name": "tokenAddr",
          "type": "address[]"
        }
      ],
      "name": "getBalances",
      "outputs": [
        {
          "components": [
            {
              "internalType": "address",
              "name": "token",
              "type": "address"
            },
            {
              "internalType": "uint256",
              "name": "balance",
              "type": "uint256"
            }
          ],
          "internalType": "struct UtilityContract.ReturnBalance[]",
          "name": "",
          "type": "tuple[]"
        }
      ],
      "stateMutability": "view",
      "type": "function"
    }
  ],
  "bytecode": "0x608060405234801561001057600080fd5b5061061f806100206000396000f3fe608060405234801561001057600080fd5b506004361061002b5760003560e01c80636a385ae914610030575b600080fd5b61004a600480360381019061004591906102dc565b610060565b6040516100579190610442565b60405180910390f35b606060008383905067ffffffffffffffff81111561008157610080610464565b5b6040519080825280602002602001820160405280156100ba57816020015b6100a76101df565b81526020019060019003908161009f5790505b50905060005b848490508110156101d35760008585838181106100e0576100df610493565b5b90506020020160208101906100f591906104c2565b905060008173ffffffffffffffffffffffffffffffffffffffff166370a08231896040518263ffffffff1660e01b815260040161013291906104fe565b602060405180830381865afa15801561014f573d6000803e3d6000fd5b505050506040513d601f19601f820116820180604052508101906101739190610545565b905060405180604001604052808373ffffffffffffffffffffffffffffffffffffffff168152602001828152508484815181106101b3576101b2610493565b5b6020026020010181905250505080806101cb906105a1565b9150506100c0565b50809150509392505050565b6040518060400160405280600073ffffffffffffffffffffffffffffffffffffffff168152602001600081525090565b600080fd5b600080fd5b600073ffffffffffffffffffffffffffffffffffffffff82169050919050565b600061024482610219565b9050919050565b61025481610239565b811461025f57600080fd5b50565b6000813590506102718161024b565b92915050565b600080fd5b600080fd5b600080fd5b60008083601f84011261029c5761029b610277565b5b8235905067ffffffffffffffff8111156102b9576102b861027c565b5b6020830191508360208202830111156102d5576102d4610281565b5b9250929050565b6000806000604084860312156102f5576102f461020f565b5b600061030386828701610262565b935050602084013567ffffffffffffffff81111561032457610323610214565b5b61033086828701610286565b92509250509250925092565b600081519050919050565b600082825260208201905092915050565b6000819050602082019050919050565b61037181610239565b82525050565b6000819050919050565b61038a81610377565b82525050565b6040820160008201516103a66000850182610368565b5060208201516103b96020850182610381565b50505050565b60006103cb8383610390565b60408301905092915050565b6000602082019050919050565b60006103ef8261033c565b6103f98185610347565b935061040483610358565b8060005b8381101561043557815161041c88826103bf565b9750610427836103d7565b925050600181019050610408565b5085935050505092915050565b6000602082019050818103600083015261045c81846103e4565b905092915050565b7f4e487b7100000000000000000000000000000000000000000000000000000000600052604160045260246000fd5b7f4e487b7100000000000000000000000000000000000000000000000000000000600052603260045260246000fd5b6000602082840312156104d8576104d761020f565b5b60006104e684828501610262565b91505092915050565b6104f881610239565b82525050565b600060208201905061051360008301846104ef565b92915050565b61052281610377565b811461052d57600080fd5b50565b60008151905061053f81610519565b92915050565b60006020828403121561055b5761055a61020f565b5b600061056984828501610530565b91505092915050565b7f4e487b7100000000000000000000000000000000000000000000000000000000600052601160045260246000fd5b60006105ac82610377565b91507fffffffffffffffffffffffffffffffffffffffffffffffffffffffffffffffff82036105de576105dd610572565b5b60018201905091905056fea2646970667358221220107a9a9a80cec1c4630d3899fa1ed63dc97f103f38fe472759b6640b1e80025964736f6c63430008110033",
  "immutableReferences": {},
  "source": "// SPDX-License-Identifier: GPL-3.0\r\n\r\npragma solidity >=0.7.0 <0.9.0;\r\n\r\ninterface ERC20 {\r\n    function balanceOf(address who) external view returns (uint256);\r\n}\r\n\r\ncontract UtilityContract {\r\n\r\n    struct ReturnBalance {\r\n        address token;\r\n        uint256 balance;\r\n    }\r\n\r\n    constructor() {}\r\n\r\n    function getBalances(address walletAddr, address[] calldata tokenAddr) public view \r\n    returns (ReturnBalance[] memory) {\r\n\r\n        ReturnBalance[] memory BalanceOutputArray = new ReturnBalance[](tokenAddr.length);\r\n\r\n        // loop through all token addresses of walletAddr to get required output values\r\n        for (uint i=0; i<tokenAddr.length ; i++) {\r\n            address curToken = tokenAddr[i];\r\n            uint256 tokenBalance = ERC20(curToken).balanceOf(walletAddr);\r\n            BalanceOutputArray[i] = ReturnBalance(curToken,tokenBalance);\r\n        }\r\n\r\n        return BalanceOutputArray;\r\n    }\r\n}",
  "sourcePath": "C:\\Users\\daran\\OneDrive\\Desktop\\GitHub Stuff\\Switcheo-Challenge\\problem5\\contracts\\UtilityContract.sol",
  "compiler": {
    "name": "solc",
    "version": "0.8.17+commit.8df45f5f.Emscripten.clang"
  },
  "schemaVersion": "3.4.10",
  "updatedAt": "2022-09-23T17:42:12.694Z",
  "devdoc": {
    "kind": "dev",
    "methods": {},
    "version": 1
  },
  "userdoc": {
    "kind": "user",
    "methods": {},
    "version": 1
  }
}